{
  "contractName": "CourseMarketplace",
  "abi": [
    {
      "inputs": [],
      "stateMutability": "nonpayable",
      "type": "constructor"
    },
    {
      "inputs": [],
      "name": "CourseHasHowner",
      "type": "error"
    },
    {
      "inputs": [],
      "name": "CourseIsNotCreated",
      "type": "error"
    },
    {
      "inputs": [],
      "name": "InvalidState",
      "type": "error"
    },
    {
      "inputs": [],
      "name": "OnlyOwner",
      "type": "error"
    },
    {
      "inputs": [],
      "name": "SenderIsNotCourseOwner",
      "type": "error"
    },
    {
      "inputs": [],
      "name": "isStopped",
      "outputs": [
        {
          "internalType": "bool",
          "name": "",
          "type": "bool"
        }
      ],
      "stateMutability": "view",
      "type": "function",
      "constant": true
    },
    {
      "stateMutability": "payable",
      "type": "receive",
      "payable": true
    },
    {
      "inputs": [
        {
          "internalType": "uint256",
          "name": "amount",
          "type": "uint256"
        }
      ],
      "name": "withdraw",
      "outputs": [],
      "stateMutability": "nonpayable",
      "type": "function"
    },
    {
      "inputs": [],
      "name": "emergencyWithdraw",
      "outputs": [],
      "stateMutability": "nonpayable",
      "type": "function"
    },
    {
      "inputs": [],
      "name": "selfDestruct",
      "outputs": [],
      "stateMutability": "nonpayable",
      "type": "function"
    },
    {
      "inputs": [],
      "name": "stopContract",
      "outputs": [],
      "stateMutability": "nonpayable",
      "type": "function"
    },
    {
      "inputs": [],
      "name": "resumeContract",
      "outputs": [],
      "stateMutability": "nonpayable",
      "type": "function"
    },
    {
      "inputs": [
        {
          "internalType": "bytes16",
          "name": "courseId",
          "type": "bytes16"
        },
        {
          "internalType": "bytes32",
          "name": "proof",
          "type": "bytes32"
        }
      ],
      "name": "purchaseCourse",
      "outputs": [],
      "stateMutability": "payable",
      "type": "function",
      "payable": true
    },
    {
      "inputs": [
        {
          "internalType": "bytes32",
          "name": "courseHash",
          "type": "bytes32"
        }
      ],
      "name": "repurchaseCourse",
      "outputs": [],
      "stateMutability": "payable",
      "type": "function",
      "payable": true
    },
    {
      "inputs": [
        {
          "internalType": "bytes32",
          "name": "courseHash",
          "type": "bytes32"
        }
      ],
      "name": "activateCourse",
      "outputs": [],
      "stateMutability": "nonpayable",
      "type": "function"
    },
    {
      "inputs": [
        {
          "internalType": "bytes32",
          "name": "courseHash",
          "type": "bytes32"
        }
      ],
      "name": "deactivateCourse",
      "outputs": [],
      "stateMutability": "nonpayable",
      "type": "function"
    },
    {
      "inputs": [
        {
          "internalType": "address",
          "name": "newOwner",
          "type": "address"
        }
      ],
      "name": "transferOwnership",
      "outputs": [],
      "stateMutability": "nonpayable",
      "type": "function"
    },
    {
      "inputs": [],
      "name": "getCourseCount",
      "outputs": [
        {
          "internalType": "uint256",
          "name": "",
          "type": "uint256"
        }
      ],
      "stateMutability": "view",
      "type": "function",
      "constant": true
    },
    {
      "inputs": [
        {
          "internalType": "uint256",
          "name": "index",
          "type": "uint256"
        }
      ],
      "name": "getCourseHashAtIndex",
      "outputs": [
        {
          "internalType": "bytes32",
          "name": "",
          "type": "bytes32"
        }
      ],
      "stateMutability": "view",
      "type": "function",
      "constant": true
    },
    {
      "inputs": [
        {
          "internalType": "bytes32",
          "name": "courseHash",
          "type": "bytes32"
        }
      ],
      "name": "getCourseByHash",
      "outputs": [
        {
          "components": [
            {
              "internalType": "uint256",
              "name": "id",
              "type": "uint256"
            },
            {
              "internalType": "uint256",
              "name": "price",
              "type": "uint256"
            },
            {
              "internalType": "bytes32",
              "name": "proof",
              "type": "bytes32"
            },
            {
              "internalType": "address",
              "name": "owner",
              "type": "address"
            },
            {
              "internalType": "enum CourseMarketplace.State",
              "name": "state",
              "type": "uint8"
            }
          ],
          "internalType": "struct CourseMarketplace.Course",
          "name": "",
          "type": "tuple"
        }
      ],
      "stateMutability": "view",
      "type": "function",
      "constant": true
    },
    {
      "inputs": [],
      "name": "getContractOwner",
      "outputs": [
        {
          "internalType": "address",
          "name": "",
          "type": "address"
        }
      ],
      "stateMutability": "view",
      "type": "function",
      "constant": true
    },
    {
      "inputs": [
        {
          "internalType": "bytes32",
          "name": "courseHash",
          "type": "bytes32"
        }
      ],
      "name": "isCourseCreated",
      "outputs": [
        {
          "internalType": "bool",
          "name": "",
          "type": "bool"
        }
      ],
      "stateMutability": "view",
      "type": "function",
      "constant": true
    }
  ],
  "bytecode": "0x608060405260008060006101000a81548160ff02191690831515021790555034801561002a57600080fd5b5061003a3361003f60201b60201c565b610083565b80600460006101000a81548173ffffffffffffffffffffffffffffffffffffffff021916908373ffffffffffffffffffffffffffffffffffffffff16021790555050565b611d3d806100926000396000f3fe6080604052600436106100f75760003560e01c8063935d7e6d1161008a578063d76821cb11610059578063d76821cb146102da578063db2e21bc146102f6578063f2fde38b1461030d578063f4b9da9214610336576100fe565b8063935d7e6d1461025857806396cfda06146102815780639cb8a26a146102ac578063c4bc5da5146102c3576100fe565b8063442890d5116100c6578063442890d5146101975780636136e1eb146101c257806362e4e6ac146101de5780636d11290b1461021b576100fe565b806312253a6c146101035780632e1a7d4d1461011a57806339262572146101435780633f683b6a1461016c576100fe565b366100fe57005b600080fd5b34801561010f57600080fd5b50610118610373565b005b34801561012657600080fd5b50610141600480360381019061013c91906116b5565b6103fb565b005b34801561014f57600080fd5b5061016a6004803603810190610165919061168c565b610539565b005b34801561017857600080fd5b5061018161075b565b60405161018e919061191a565b60405180910390f35b3480156101a357600080fd5b506101ac61076c565b6040516101b991906118ff565b60405180910390f35b6101dc60048036038101906101d7919061168c565b610796565b005b3480156101ea57600080fd5b506102056004803603810190610200919061168c565b610993565b60405161021291906119f0565b60405180910390f35b34801561022757600080fd5b50610242600480360381019061023d91906116b5565b610abb565b60405161024f9190611935565b60405180910390f35b34801561026457600080fd5b5061027f600480360381019061027a919061168c565b610ad8565b005b34801561028d57600080fd5b50610296610dd9565b6040516102a39190611a0b565b60405180910390f35b3480156102b857600080fd5b506102c1610de3565b005b3480156102cf57600080fd5b506102d8610f6d565b005b6102f460048036038101906102ef9190611650565b610ff5565b005b34801561030257600080fd5b5061030b611230565b005b34801561031957600080fd5b50610334600480360381019061032f9190611627565b6113ba565b005b34801561034257600080fd5b5061035d6004803603810190610358919061168c565b611432565b60405161036a919061191a565b60405180910390f35b61037b61076c565b73ffffffffffffffffffffffffffffffffffffffff163373ffffffffffffffffffffffffffffffffffffffff16146103df576040517f5fc483c500000000000000000000000000000000000000000000000000000000815260040160405180910390fd5b60016000806101000a81548160ff021916908315150217905550565b61040361076c565b73ffffffffffffffffffffffffffffffffffffffff163373ffffffffffffffffffffffffffffffffffffffff1614610467576040517f5fc483c500000000000000000000000000000000000000000000000000000000815260040160405180910390fd5b6000600460009054906101000a900473ffffffffffffffffffffffffffffffffffffffff1673ffffffffffffffffffffffffffffffffffffffff16826040516104af906118ea565b60006040518083038185875af1925050503d80600081146104ec576040519150601f19603f3d011682016040523d82523d6000602084013e6104f1565b606091505b5050905080610535576040517f08c379a000000000000000000000000000000000000000000000000000000000815260040161052c90611970565b60405180910390fd5b5050565b60008054906101000a900460ff1615610587576040517f08c379a000000000000000000000000000000000000000000000000000000000815260040161057e906119d0565b60405180910390fd5b61058f61076c565b73ffffffffffffffffffffffffffffffffffffffff163373ffffffffffffffffffffffffffffffffffffffff16146105f3576040517f5fc483c500000000000000000000000000000000000000000000000000000000815260040160405180910390fd5b6105fc81611432565b610632576040517f4db0c48300000000000000000000000000000000000000000000000000000000815260040160405180910390fd5b600060016000838152602001908152602001600020905060006002811115610683577f4e487b7100000000000000000000000000000000000000000000000000000000600052602160045260246000fd5b8160030160149054906101000a900460ff1660028111156106cd577f4e487b7100000000000000000000000000000000000000000000000000000000600052602160045260246000fd5b14610704576040517fbaf3f0f700000000000000000000000000000000000000000000000000000000815260040160405180910390fd5b60018160030160146101000a81548160ff02191690836002811115610752577f4e487b7100000000000000000000000000000000000000000000000000000000600052602160045260246000fd5b02179055505050565b60008054906101000a900460ff1681565b6000600460009054906101000a900473ffffffffffffffffffffffffffffffffffffffff16905090565b60008054906101000a900460ff16156107e4576040517f08c379a00000000000000000000000000000000000000000000000000000000081526004016107db906119d0565b60405180910390fd5b6107ed81611432565b610823576040517f4db0c48300000000000000000000000000000000000000000000000000000000815260040160405180910390fd5b61082c816114a1565b610862576040517fcce31cc400000000000000000000000000000000000000000000000000000000815260040160405180910390fd5b60006001600083815260200190815260200160002090506002808111156108b2577f4e487b7100000000000000000000000000000000000000000000000000000000600052602160045260246000fd5b8160030160149054906101000a900460ff1660028111156108fc577f4e487b7100000000000000000000000000000000000000000000000000000000600052602160045260246000fd5b14610933576040517fbaf3f0f700000000000000000000000000000000000000000000000000000000815260040160405180910390fd5b60008160030160146101000a81548160ff02191690836002811115610981577f4e487b7100000000000000000000000000000000000000000000000000000000600052602160045260246000fd5b02179055503481600101819055505050565b61099b611553565b600160008381526020019081526020016000206040518060a00160405290816000820154815260200160018201548152602001600282015481526020016003820160009054906101000a900473ffffffffffffffffffffffffffffffffffffffff1673ffffffffffffffffffffffffffffffffffffffff1673ffffffffffffffffffffffffffffffffffffffff1681526020016003820160149054906101000a900460ff166002811115610a78577f4e487b7100000000000000000000000000000000000000000000000000000000600052602160045260246000fd5b6002811115610ab0577f4e487b7100000000000000000000000000000000000000000000000000000000600052602160045260246000fd5b815250509050919050565b600060026000838152602001908152602001600020549050919050565b60008054906101000a900460ff1615610b26576040517f08c379a0000000000000000000000000000000000000000000000000000000008152600401610b1d906119d0565b60405180910390fd5b610b2e61076c565b73ffffffffffffffffffffffffffffffffffffffff163373ffffffffffffffffffffffffffffffffffffffff1614610b92576040517f5fc483c500000000000000000000000000000000000000000000000000000000815260040160405180910390fd5b610b9b81611432565b610bd1576040517f4db0c48300000000000000000000000000000000000000000000000000000000815260040160405180910390fd5b600060016000838152602001908152602001600020905060006002811115610c22577f4e487b7100000000000000000000000000000000000000000000000000000000600052602160045260246000fd5b8160030160149054906101000a900460ff166002811115610c6c577f4e487b7100000000000000000000000000000000000000000000000000000000600052602160045260246000fd5b14610ca3576040517fbaf3f0f700000000000000000000000000000000000000000000000000000000815260040160405180910390fd5b60008160030160009054906101000a900473ffffffffffffffffffffffffffffffffffffffff1673ffffffffffffffffffffffffffffffffffffffff168260010154604051610cf1906118ea565b60006040518083038185875af1925050503d8060008114610d2e576040519150601f19603f3d011682016040523d82523d6000602084013e610d33565b606091505b5050905080610d77576040517f08c379a0000000000000000000000000000000000000000000000000000000008152600401610d6e90611990565b60405180910390fd5b60028260030160146101000a81548160ff02191690836002811115610dc5577f4e487b7100000000000000000000000000000000000000000000000000000000600052602160045260246000fd5b021790555060008260010181905550505050565b6000600354905090565b60008054906101000a900460ff16610e30576040517f08c379a0000000000000000000000000000000000000000000000000000000008152600401610e27906119b0565b60405180910390fd5b610e3861076c565b73ffffffffffffffffffffffffffffffffffffffff163373ffffffffffffffffffffffffffffffffffffffff1614610e9c576040517f5fc483c500000000000000000000000000000000000000000000000000000000815260040160405180910390fd5b6000600460009054906101000a900473ffffffffffffffffffffffffffffffffffffffff1673ffffffffffffffffffffffffffffffffffffffff1647604051610ee4906118ea565b60006040518083038185875af1925050503d8060008114610f21576040519150601f19603f3d011682016040523d82523d6000602084013e610f26565b606091505b5050905080610f6a576040517f08c379a0000000000000000000000000000000000000000000000000000000008152600401610f6190611950565b60405180910390fd5b50565b610f7561076c565b73ffffffffffffffffffffffffffffffffffffffff163373ffffffffffffffffffffffffffffffffffffffff1614610fd9576040517f5fc483c500000000000000000000000000000000000000000000000000000000815260040160405180910390fd5b60008060006101000a81548160ff021916908315150217905550565b60008054906101000a900460ff1615611043576040517f08c379a000000000000000000000000000000000000000000000000000000000815260040161103a906119d0565b60405180910390fd5b600082336040516020016110589291906118be565b604051602081830303815290604052805190602001209050611079816114a1565b156110b0576040517f2d5fef9200000000000000000000000000000000000000000000000000000000815260040160405180910390fd5b6000600360008154809291906110c590611ae5565b9190505590508160026000838152602001908152602001600020819055506040518060a001604052808281526020013481526020018481526020013373ffffffffffffffffffffffffffffffffffffffff16815260200160006002811115611156577f4e487b7100000000000000000000000000000000000000000000000000000000600052602160045260246000fd5b8152506001600084815260200190815260200160002060008201518160000155602082015181600101556040820151816002015560608201518160030160006101000a81548173ffffffffffffffffffffffffffffffffffffffff021916908373ffffffffffffffffffffffffffffffffffffffff16021790555060808201518160030160146101000a81548160ff02191690836002811115611222577f4e487b7100000000000000000000000000000000000000000000000000000000600052602160045260246000fd5b021790555090505050505050565b60008054906101000a900460ff1661127d576040517f08c379a0000000000000000000000000000000000000000000000000000000008152600401611274906119b0565b60405180910390fd5b61128561076c565b73ffffffffffffffffffffffffffffffffffffffff163373ffffffffffffffffffffffffffffffffffffffff16146112e9576040517f5fc483c500000000000000000000000000000000000000000000000000000000815260040160405180910390fd5b6000600460009054906101000a900473ffffffffffffffffffffffffffffffffffffffff1673ffffffffffffffffffffffffffffffffffffffff1647604051611331906118ea565b60006040518083038185875af1925050503d806000811461136e576040519150601f19603f3d011682016040523d82523d6000602084013e611373565b606091505b50509050806113b7576040517f08c379a00000000000000000000000000000000000000000000000000000000081526004016113ae90611970565b60405180910390fd5b50565b6113c261076c565b73ffffffffffffffffffffffffffffffffffffffff163373ffffffffffffffffffffffffffffffffffffffff1614611426576040517f5fc483c500000000000000000000000000000000000000000000000000000000815260040160405180910390fd5b61142f8161150f565b50565b60008073ffffffffffffffffffffffffffffffffffffffff166001600084815260200190815260200160002060030160009054906101000a900473ffffffffffffffffffffffffffffffffffffffff1673ffffffffffffffffffffffffffffffffffffffff1614159050919050565b60003373ffffffffffffffffffffffffffffffffffffffff166001600084815260200190815260200160002060030160009054906101000a900473ffffffffffffffffffffffffffffffffffffffff1673ffffffffffffffffffffffffffffffffffffffff16149050919050565b80600460006101000a81548173ffffffffffffffffffffffffffffffffffffffff021916908373ffffffffffffffffffffffffffffffffffffffff16021790555050565b6040518060a00160405280600081526020016000815260200160008019168152602001600073ffffffffffffffffffffffffffffffffffffffff168152602001600060028111156115cd577f4e487b7100000000000000000000000000000000000000000000000000000000600052602160045260246000fd5b81525090565b6000813590506115e281611cab565b92915050565b6000813590506115f781611cc2565b92915050565b60008135905061160c81611cd9565b92915050565b60008135905061162181611cf0565b92915050565b60006020828403121561163957600080fd5b6000611647848285016115d3565b91505092915050565b6000806040838503121561166357600080fd5b6000611671858286016115e8565b9250506020611682858286016115fd565b9150509250929050565b60006020828403121561169e57600080fd5b60006116ac848285016115fd565b91505092915050565b6000602082840312156116c757600080fd5b60006116d584828501611612565b91505092915050565b6116e781611a42565b82525050565b6116f681611a42565b82525050565b61170d61170882611a42565b611b2e565b82525050565b61171c81611a54565b82525050565b61173361172e82611a60565b611b40565b82525050565b61174281611a8c565b82525050565b61175181611a8c565b82525050565b61176081611ad3565b82525050565b6000611773601283611a31565b915061177e82611bc7565b602082019050919050565b6000611796601383611a31565b91506117a182611bf0565b602082019050919050565b60006117b9601d83611a31565b91506117c482611c19565b602082019050919050565b60006117dc601783611a31565b91506117e782611c42565b602082019050919050565b60006117ff601383611a31565b915061180a82611c6b565b602082019050919050565b6000611822600083611a26565b915061182d82611c94565b600082019050919050565b60a08201600082015161184e60008501826118a0565b50602082015161186160208501826118a0565b5060408201516118746040850182611739565b50606082015161188760608501826116de565b50608082015161189a6080850182611757565b50505050565b6118a981611ac9565b82525050565b6118b881611ac9565b82525050565b60006118ca8285611722565b6010820191506118da82846116fc565b6014820191508190509392505050565b60006118f582611815565b9150819050919050565b600060208201905061191460008301846116ed565b92915050565b600060208201905061192f6000830184611713565b92915050565b600060208201905061194a6000830184611748565b92915050565b6000602082019050818103600083015261196981611766565b9050919050565b6000602082019050818103600083015261198981611789565b9050919050565b600060208201905081810360008301526119a9816117ac565b9050919050565b600060208201905081810360008301526119c9816117cf565b9050919050565b600060208201905081810360008301526119e9816117f2565b9050919050565b600060a082019050611a056000830184611838565b92915050565b6000602082019050611a2060008301846118af565b92915050565b600081905092915050565b600082825260208201905092915050565b6000611a4d82611aa9565b9050919050565b60008115159050919050565b60007fffffffffffffffffffffffffffffffff0000000000000000000000000000000082169050919050565b6000819050919050565b6000819050611aa482611c97565b919050565b600073ffffffffffffffffffffffffffffffffffffffff82169050919050565b6000819050919050565b6000611ade82611a96565b9050919050565b6000611af082611ac9565b91507fffffffffffffffffffffffffffffffffffffffffffffffffffffffffffffffff821415611b2357611b22611b5c565b5b600182019050919050565b6000611b3982611b4a565b9050919050565b6000819050919050565b6000611b5582611bba565b9050919050565b7f4e487b7100000000000000000000000000000000000000000000000000000000600052601160045260246000fd5b7f4e487b7100000000000000000000000000000000000000000000000000000000600052602160045260246000fd5b60008160601b9050919050565b7f63616c6c7b76616c75657d206661696c65640000000000000000000000000000600082015250565b7f5472616e73666572696e67206661696c65642e00000000000000000000000000600082015250565b7f5472616e73666572696e67206d6f6e6579206261636b206661696c652e000000600082015250565b7f436f6e7472616374206973206e6f742073746f70706564000000000000000000600082015250565b7f436f6e74726163742069732073746f7070656400000000000000000000000000600082015250565b50565b60038110611ca857611ca7611b8b565b5b50565b611cb481611a42565b8114611cbf57600080fd5b50565b611ccb81611a60565b8114611cd657600080fd5b50565b611ce281611a8c565b8114611ced57600080fd5b50565b611cf981611ac9565b8114611d0457600080fd5b5056fea264697066735822122078046c35262cb81038c6d0f94fb5261b4c1b5c528db16ffb8c8264c8ef09791664736f6c63430008040033",
  "immutableReferences": {},
  "source": "// SPDX-License-Identifier: MIT\npragma solidity >=0.4.22 <0.9.0;\n\ncontract CourseMarketplace {\n  enum State {\n    Purchased,\n    Activated,\n    Deactivated\n  }\n\n  struct Course {\n    uint id;\n    uint price;\n    bytes32 proof;\n    address owner;\n    State state;\n  }\n\n  bool public isStopped = false;\n\n  // mapping of courseHash to Course data\n  mapping(bytes32 => Course) private ownedCourses;\n\n  // mapping of courseId to courseHash\n  mapping(uint => bytes32) private ownedCourseHash;\n\n  // number of all courses + id of the course\n  uint private totalOwnedCourses;\n\n  address payable private owner;\n\n  constructor() {\n    setContractOwner(msg.sender);\n  }\n\n  // with 3 slashes we can specify an error message\n  /// Course has already an Owner!\n  error CourseHasHowner();\n\n  /// Only owner has access\n  error OnlyOwner();\n\n  /// Course has invalid state\n  error InvalidState();\n\n  /// Course is not created\n  error CourseIsNotCreated();\n\n  /// Sender is not course owner!\n  error SenderIsNotCourseOwner();\n\n  modifier onlyOwner() {\n    if (msg.sender != getContractOwner()) {\n      revert OnlyOwner();\n    }\n    _;\n  }\n\n  modifier onlyWhenNotStopped {\n    require(!isStopped, \"Contract is stopped\");\n    _;\n  }\n\n  modifier onlyWhenStopped {\n    require(isStopped, \"Contract is not stopped\");\n    _;\n  }\n\n  receive() external payable {}\n\n  function withdraw(uint amount) external onlyOwner {\n    (bool success, ) = owner.call{value: amount}(\"\");\n    require(success, \"Transfering failed.\");\n  }\n\n  function emergencyWithdraw() external onlyWhenStopped onlyOwner {\n    (bool success, ) = owner.call{value: address(this).balance}(\"\");\n    require(success, \"Transfering failed.\");\n  }\n\n  function selfDestruct() external onlyWhenStopped onlyOwner {\n    // selfdestruct(owner);\n    /**\n     * selfdestruct is deprecated, I found the solution here\n     * https://ethereum.stackexchange.com/questions/144210/selfdestruct-deprecated-in-solidity-0-8-18\n     */\n    (bool success,) = payable(owner).call{value: address(this).balance}(\"\");\n    if (!success) {\n      revert(\"call{value} failed\");\n    }\n  }\n\n  function stopContract() external onlyOwner {\n    isStopped = true;\n  }\n\n  function resumeContract() external onlyOwner {\n    isStopped = false;\n  }\n\n  function purchaseCourse(bytes16 courseId, bytes32 proof) external payable onlyWhenNotStopped {\n    // courseId 0x00000000000000000000000000003130\n    // proof 0x0000000000000000000000000000313000000000000000000000000000003130\n    bytes32 courseHash = keccak256(abi.encodePacked(courseId, msg.sender));\n\n    if (hasCourseOwnership(courseHash)) {\n      revert CourseHasHowner();\n    }\n\n    uint id = totalOwnedCourses++;\n\n    ownedCourseHash[id] = courseHash;\n    ownedCourses[courseHash] = Course({\n      id: id,\n      price: msg.value,\n      proof: proof,\n      owner: msg.sender,\n      state: State.Purchased\n    });\n  }\n\n  function repurchaseCourse(bytes32 courseHash) external payable onlyWhenNotStopped {\n    if (!isCourseCreated(courseHash)) {\n      revert CourseIsNotCreated();\n    }\n\n    if (!hasCourseOwnership(courseHash)) {\n      revert SenderIsNotCourseOwner();\n    }\n\n    Course storage course = ownedCourses[courseHash];\n\n    if (course.state != State.Deactivated) {\n      revert InvalidState();\n    }\n\n    course.state = State.Purchased;\n    course.price = msg.value;\n  }\n\n  function activateCourse(bytes32 courseHash) external onlyWhenNotStopped onlyOwner {\n    if (!isCourseCreated(courseHash)) {\n      revert CourseIsNotCreated();\n    }\n\n    Course storage course = ownedCourses[courseHash];\n\n    if (course.state != State.Purchased) {\n      revert InvalidState();\n    }\n\n    course.state = State.Activated;\n  }\n\n  function deactivateCourse(bytes32 courseHash) external onlyWhenNotStopped onlyOwner {\n    if (!isCourseCreated(courseHash)) {\n      revert CourseIsNotCreated();\n    }\n\n    Course storage course = ownedCourses[courseHash];\n\n    if (course.state != State.Purchased) {\n      revert InvalidState();\n    }\n\n    // Sending back payed amount to the buyer before deactivation\n    (bool success, ) = course.owner.call{value: course.price}(\"\");\n    require(success, \"Transfering money back faile.\");\n\n    course.state = State.Deactivated;\n    course.price = 0;\n  }\n\n  function transferOwnership(address newOwner) external onlyOwner {\n    setContractOwner(newOwner);\n  }\n\n  function getCourseCount() external view returns (uint) {\n    return totalOwnedCourses;\n  }\n\n  function getCourseHashAtIndex(uint index) external view returns(bytes32) {\n    return ownedCourseHash[index];\n  }\n\n  function getCourseByHash(bytes32 courseHash) external view returns(Course memory) {\n    return ownedCourses[courseHash];\n  }\n\n  function getContractOwner() public view returns(address) {\n    return owner;\n  }\n\n  function setContractOwner(address newOwner) private {\n    owner = payable(newOwner);\n  }\n\n  function isCourseCreated(bytes32 courseHash) public view returns(bool) {\n    return ownedCourses[courseHash].owner != 0x0000000000000000000000000000000000000000;\n  }\n\n  function hasCourseOwnership(bytes32 courseHash) private view returns(bool) {\n    return ownedCourses[courseHash].owner == msg.sender;\n  }\n}",
  "sourcePath": "/Users/admin/Desktop/self-development/udemy/web3-solidity-dapps/blockchain/marketplace-eth/contracts/CourseMarketplace.sol",
  "compiler": {
    "name": "solc",
    "version": "0.8.4+commit.c7e474f2.Emscripten.clang"
  },
  "schemaVersion": "3.4.16",
  "updatedAt": "2024-12-20T03:13:59.405Z",
  "networkType": "ethereum",
  "devdoc": {
    "kind": "dev",
    "methods": {},
    "version": 1
  },
  "userdoc": {
    "errors": {
      "CourseHasHowner()": [
        {
          "notice": "Course has already an Owner!"
        }
      ],
      "CourseIsNotCreated()": [
        {
          "notice": "Course is not created"
        }
      ],
      "InvalidState()": [
        {
          "notice": "Course has invalid state"
        }
      ],
      "OnlyOwner()": [
        {
          "notice": "Only owner has access"
        }
      ],
      "SenderIsNotCourseOwner()": [
        {
          "notice": "Sender is not course owner!"
        }
      ]
    },
    "kind": "user",
    "methods": {},
    "version": 1
  }
}