{
  "contractName": "CourseMarketplace",
  "abi": [
    {
      "inputs": [],
      "stateMutability": "nonpayable",
      "type": "constructor"
    },
    {
      "inputs": [],
      "name": "CourseHasHowner",
      "type": "error"
    },
    {
      "inputs": [],
      "name": "CourseIsNotCreated",
      "type": "error"
    },
    {
      "inputs": [],
      "name": "InvalidState",
      "type": "error"
    },
    {
      "inputs": [],
      "name": "OnlyOwner",
      "type": "error"
    },
    {
      "inputs": [
        {
          "internalType": "bytes16",
          "name": "courseId",
          "type": "bytes16"
        },
        {
          "internalType": "bytes32",
          "name": "proof",
          "type": "bytes32"
        }
      ],
      "name": "purchaseCourse",
      "outputs": [],
      "stateMutability": "payable",
      "type": "function",
      "payable": true
    },
    {
      "inputs": [
        {
          "internalType": "bytes32",
          "name": "courseHash",
          "type": "bytes32"
        }
      ],
      "name": "activateCourse",
      "outputs": [],
      "stateMutability": "nonpayable",
      "type": "function"
    },
    {
      "inputs": [
        {
          "internalType": "address",
          "name": "newOwner",
          "type": "address"
        }
      ],
      "name": "transferOwnership",
      "outputs": [],
      "stateMutability": "nonpayable",
      "type": "function"
    },
    {
      "inputs": [],
      "name": "getCourseCount",
      "outputs": [
        {
          "internalType": "uint256",
          "name": "",
          "type": "uint256"
        }
      ],
      "stateMutability": "view",
      "type": "function",
      "constant": true
    },
    {
      "inputs": [
        {
          "internalType": "uint256",
          "name": "index",
          "type": "uint256"
        }
      ],
      "name": "getCourseHashAtIndex",
      "outputs": [
        {
          "internalType": "bytes32",
          "name": "",
          "type": "bytes32"
        }
      ],
      "stateMutability": "view",
      "type": "function",
      "constant": true
    },
    {
      "inputs": [
        {
          "internalType": "bytes32",
          "name": "courseHash",
          "type": "bytes32"
        }
      ],
      "name": "getCourseByHash",
      "outputs": [
        {
          "components": [
            {
              "internalType": "uint256",
              "name": "id",
              "type": "uint256"
            },
            {
              "internalType": "uint256",
              "name": "price",
              "type": "uint256"
            },
            {
              "internalType": "bytes32",
              "name": "proof",
              "type": "bytes32"
            },
            {
              "internalType": "address",
              "name": "owner",
              "type": "address"
            },
            {
              "internalType": "enum CourseMarketplace.State",
              "name": "state",
              "type": "uint8"
            }
          ],
          "internalType": "struct CourseMarketplace.Course",
          "name": "",
          "type": "tuple"
        }
      ],
      "stateMutability": "view",
      "type": "function",
      "constant": true
    },
    {
      "inputs": [],
      "name": "getContractOwner",
      "outputs": [
        {
          "internalType": "address",
          "name": "",
          "type": "address"
        }
      ],
      "stateMutability": "view",
      "type": "function",
      "constant": true
    },
    {
      "inputs": [
        {
          "internalType": "bytes32",
          "name": "courseHash",
          "type": "bytes32"
        }
      ],
      "name": "isCourseCreated",
      "outputs": [
        {
          "internalType": "bool",
          "name": "",
          "type": "bool"
        }
      ],
      "stateMutability": "view",
      "type": "function",
      "constant": true
    }
  ],
  "bytecode": "0x608060405234801561001057600080fd5b506100203361002560201b60201c565b610069565b80600360006101000a81548173ffffffffffffffffffffffffffffffffffffffff021916908373ffffffffffffffffffffffffffffffffffffffff16021790555050565b610e40806100786000396000f3fe60806040526004361061007b5760003560e01c806396cfda061161004e57806396cfda061461014e578063d76821cb14610179578063f2fde38b14610195578063f4b9da92146101be5761007b565b80633926257214610080578063442890d5146100a957806362e4e6ac146100d45780636d11290b14610111575b600080fd5b34801561008c57600080fd5b506100a760048036038101906100a29190610a02565b6101fb565b005b3480156100b557600080fd5b506100be6103ce565b6040516100cb9190610b8e565b60405180910390f35b3480156100e057600080fd5b506100fb60048036038101906100f69190610a02565b6103f8565b6040516101089190610bdf565b60405180910390f35b34801561011d57600080fd5b5061013860048036038101906101339190610a2b565b61051f565b6040516101459190610bc4565b60405180910390f35b34801561015a57600080fd5b5061016361053c565b6040516101709190610bfa565b60405180910390f35b610193600480360381019061018e91906109c6565b610546565b005b3480156101a157600080fd5b506101bc60048036038101906101b7919061099d565b610732565b005b3480156101ca57600080fd5b506101e560048036038101906101e09190610a02565b6107aa565b6040516101f29190610ba9565b60405180910390f35b6102036103ce565b73ffffffffffffffffffffffffffffffffffffffff163373ffffffffffffffffffffffffffffffffffffffff1614610267576040517f5fc483c500000000000000000000000000000000000000000000000000000000815260040160405180910390fd5b610270816107aa565b6102a6576040517f4db0c48300000000000000000000000000000000000000000000000000000000815260040160405180910390fd5b60008060008381526020019081526020016000209050600060028111156102f6577f4e487b7100000000000000000000000000000000000000000000000000000000600052602160045260246000fd5b8160030160149054906101000a900460ff166002811115610340577f4e487b7100000000000000000000000000000000000000000000000000000000600052602160045260246000fd5b14610377576040517fbaf3f0f700000000000000000000000000000000000000000000000000000000815260040160405180910390fd5b60018160030160146101000a81548160ff021916908360028111156103c5577f4e487b7100000000000000000000000000000000000000000000000000000000600052602160045260246000fd5b02179055505050565b6000600360009054906101000a900473ffffffffffffffffffffffffffffffffffffffff16905090565b6104006108c9565b6000808381526020019081526020016000206040518060a00160405290816000820154815260200160018201548152602001600282015481526020016003820160009054906101000a900473ffffffffffffffffffffffffffffffffffffffff1673ffffffffffffffffffffffffffffffffffffffff1673ffffffffffffffffffffffffffffffffffffffff1681526020016003820160149054906101000a900460ff1660028111156104dc577f4e487b7100000000000000000000000000000000000000000000000000000000600052602160045260246000fd5b6002811115610514577f4e487b7100000000000000000000000000000000000000000000000000000000600052602160045260246000fd5b815250509050919050565b600060016000838152602001908152602001600020549050919050565b6000600254905090565b6000823360405160200161055b929190610b62565b60405160208183030381529060405280519060200120905061057c81610818565b156105b3576040517f2d5fef9200000000000000000000000000000000000000000000000000000000815260040160405180910390fd5b6000600260008154809291906105c890610cb8565b9190505590508160016000838152602001908152602001600020819055506040518060a001604052808281526020013481526020018481526020013373ffffffffffffffffffffffffffffffffffffffff16815260200160006002811115610659577f4e487b7100000000000000000000000000000000000000000000000000000000600052602160045260246000fd5b81525060008084815260200190815260200160002060008201518160000155602082015181600101556040820151816002015560608201518160030160006101000a81548173ffffffffffffffffffffffffffffffffffffffff021916908373ffffffffffffffffffffffffffffffffffffffff16021790555060808201518160030160146101000a81548160ff02191690836002811115610724577f4e487b7100000000000000000000000000000000000000000000000000000000600052602160045260246000fd5b021790555090505050505050565b61073a6103ce565b73ffffffffffffffffffffffffffffffffffffffff163373ffffffffffffffffffffffffffffffffffffffff161461079e576040517f5fc483c500000000000000000000000000000000000000000000000000000000815260040160405180910390fd5b6107a781610885565b50565b60008073ffffffffffffffffffffffffffffffffffffffff1660008084815260200190815260200160002060030160009054906101000a900473ffffffffffffffffffffffffffffffffffffffff1673ffffffffffffffffffffffffffffffffffffffff1614159050919050565b60003373ffffffffffffffffffffffffffffffffffffffff1660008084815260200190815260200160002060030160009054906101000a900473ffffffffffffffffffffffffffffffffffffffff1673ffffffffffffffffffffffffffffffffffffffff16149050919050565b80600360006101000a81548173ffffffffffffffffffffffffffffffffffffffff021916908373ffffffffffffffffffffffffffffffffffffffff16021790555050565b6040518060a00160405280600081526020016000815260200160008019168152602001600073ffffffffffffffffffffffffffffffffffffffff16815260200160006002811115610943577f4e487b7100000000000000000000000000000000000000000000000000000000600052602160045260246000fd5b81525090565b60008135905061095881610dae565b92915050565b60008135905061096d81610dc5565b92915050565b60008135905061098281610ddc565b92915050565b60008135905061099781610df3565b92915050565b6000602082840312156109af57600080fd5b60006109bd84828501610949565b91505092915050565b600080604083850312156109d957600080fd5b60006109e78582860161095e565b92505060206109f885828601610973565b9150509250929050565b600060208284031215610a1457600080fd5b6000610a2284828501610973565b91505092915050565b600060208284031215610a3d57600080fd5b6000610a4b84828501610988565b91505092915050565b610a5d81610c15565b82525050565b610a6c81610c15565b82525050565b610a83610a7e82610c15565b610d01565b82525050565b610a9281610c27565b82525050565b610aa9610aa482610c33565b610d13565b82525050565b610ab881610c5f565b82525050565b610ac781610c5f565b82525050565b610ad681610ca6565b82525050565b60a082016000820151610af26000850182610b44565b506020820151610b056020850182610b44565b506040820151610b186040850182610aaf565b506060820151610b2b6060850182610a54565b506080820151610b3e6080850182610acd565b50505050565b610b4d81610c9c565b82525050565b610b5c81610c9c565b82525050565b6000610b6e8285610a98565b601082019150610b7e8284610a72565b6014820191508190509392505050565b6000602082019050610ba36000830184610a63565b92915050565b6000602082019050610bbe6000830184610a89565b92915050565b6000602082019050610bd96000830184610abe565b92915050565b600060a082019050610bf46000830184610adc565b92915050565b6000602082019050610c0f6000830184610b53565b92915050565b6000610c2082610c7c565b9050919050565b60008115159050919050565b60007fffffffffffffffffffffffffffffffff0000000000000000000000000000000082169050919050565b6000819050919050565b6000819050610c7782610d9a565b919050565b600073ffffffffffffffffffffffffffffffffffffffff82169050919050565b6000819050919050565b6000610cb182610c69565b9050919050565b6000610cc382610c9c565b91507fffffffffffffffffffffffffffffffffffffffffffffffffffffffffffffffff821415610cf657610cf5610d2f565b5b600182019050919050565b6000610d0c82610d1d565b9050919050565b6000819050919050565b6000610d2882610d8d565b9050919050565b7f4e487b7100000000000000000000000000000000000000000000000000000000600052601160045260246000fd5b7f4e487b7100000000000000000000000000000000000000000000000000000000600052602160045260246000fd5b60008160601b9050919050565b60038110610dab57610daa610d5e565b5b50565b610db781610c15565b8114610dc257600080fd5b50565b610dce81610c33565b8114610dd957600080fd5b50565b610de581610c5f565b8114610df057600080fd5b50565b610dfc81610c9c565b8114610e0757600080fd5b5056fea2646970667358221220108e9edffdf81bc3bec93575abf281dc44b65a7e7d7acb74435fb70ea6f14d6364736f6c63430008040033",
  "immutableReferences": {},
  "source": "// SPDX-License-Identifier: MIT\npragma solidity >=0.4.22 <0.9.0;\n\ncontract CourseMarketplace {\n  enum State {\n    Purchased,\n    Activated,\n    Deactivated\n  }\n\n  struct Course {\n    uint id;\n    uint price;\n    bytes32 proof;\n    address owner;\n    State state;\n  }\n\n  // mapping of courseHash to Course data\n  mapping(bytes32 => Course) private ownedCourses;\n\n  // mapping of courseId to courseHash\n  mapping(uint => bytes32) private ownedCourseHash;\n\n  // number of all courses + id of the course\n  uint private totalOwnedCourses;\n\n  address payable private owner;\n\n  constructor() {\n    setContractOwner(msg.sender);\n  }\n\n  // with 3 slashes we can specify an error message\n  /// Course has already an Owner!\n  error CourseHasHowner();\n\n  /// Only owner has access\n  error OnlyOwner();\n\n  /// Course has invalid state\n  error InvalidState();\n\n  /// Course is not created\n  error CourseIsNotCreated();\n\n  modifier onlyOwner() {\n    if (msg.sender != getContractOwner()) {\n      revert OnlyOwner();\n    }\n    _;\n  }\n\n  function purchaseCourse(bytes16 courseId, bytes32 proof) external payable {\n    // courseId 0x00000000000000000000000000003130\n    // proof 0x0000000000000000000000000000313000000000000000000000000000003130\n    bytes32 courseHash = keccak256(abi.encodePacked(courseId, msg.sender));\n\n    if (hasCourseOwnership(courseHash)) {\n      revert CourseHasHowner();\n    }\n\n    uint id = totalOwnedCourses++;\n\n    ownedCourseHash[id] = courseHash;\n    ownedCourses[courseHash] = Course({\n      id: id,\n      price: msg.value,\n      proof: proof,\n      owner: msg.sender,\n      state: State.Purchased\n    });\n  }\n\n  function activateCourse(bytes32 courseHash) external onlyOwner {\n    if (!isCourseCreated(courseHash)) {\n      revert CourseIsNotCreated();\n    }\n\n    Course storage course = ownedCourses[courseHash];\n\n    if (course.state != State.Purchased) {\n      revert InvalidState();\n    }\n\n    course.state = State.Activated;\n  }\n\n  function transferOwnership(address newOwner) external onlyOwner {\n    setContractOwner(newOwner);\n  }\n\n  function getCourseCount() external view returns (uint) {\n    return totalOwnedCourses;\n  }\n\n  function getCourseHashAtIndex(uint index) external view returns(bytes32) {\n    return ownedCourseHash[index];\n  }\n\n  function getCourseByHash(bytes32 courseHash) external view returns(Course memory) {\n    return ownedCourses[courseHash];\n  }\n\n  function getContractOwner() public view returns(address) {\n    return owner;\n  }\n\n  function setContractOwner(address newOwner) private {\n    owner = payable(newOwner);\n  }\n\n  function isCourseCreated(bytes32 courseHash) public view returns(bool) {\n    return ownedCourses[courseHash].owner != 0x0000000000000000000000000000000000000000;\n  }\n\n  function hasCourseOwnership(bytes32 courseHash) private view returns(bool) {\n    return ownedCourses[courseHash].owner == msg.sender;\n  }\n}",
  "sourcePath": "/Users/admin/Desktop/self-development/udemy/web3-solidity-dapps/blockchain/marketplace-eth/contracts/CourseMarketplace.sol",
  "compiler": {
    "name": "solc",
    "version": "0.8.4+commit.c7e474f2.Emscripten.clang"
  },
  "schemaVersion": "3.4.16",
  "updatedAt": "2024-12-15T09:10:50.379Z",
  "networkType": "ethereum",
  "devdoc": {
    "kind": "dev",
    "methods": {},
    "version": 1
  },
  "userdoc": {
    "errors": {
      "CourseHasHowner()": [
        {
          "notice": "Course has already an Owner!"
        }
      ],
      "CourseIsNotCreated()": [
        {
          "notice": "Course is not created"
        }
      ],
      "InvalidState()": [
        {
          "notice": "Course has invalid state"
        }
      ],
      "OnlyOwner()": [
        {
          "notice": "Only owner has access"
        }
      ]
    },
    "kind": "user",
    "methods": {},
    "version": 1
  }
}