{
  "contractName": "CourseMarketplace",
  "abi": [
    {
      "inputs": [],
      "stateMutability": "nonpayable",
      "type": "constructor"
    },
    {
      "inputs": [],
      "name": "CourseHasHowner",
      "type": "error"
    },
    {
      "inputs": [],
      "name": "CourseIsNotCreated",
      "type": "error"
    },
    {
      "inputs": [],
      "name": "InvalidState",
      "type": "error"
    },
    {
      "inputs": [],
      "name": "OnlyOwner",
      "type": "error"
    },
    {
      "inputs": [
        {
          "internalType": "bytes16",
          "name": "courseId",
          "type": "bytes16"
        },
        {
          "internalType": "bytes32",
          "name": "proof",
          "type": "bytes32"
        }
      ],
      "name": "purchaseCourse",
      "outputs": [],
      "stateMutability": "payable",
      "type": "function",
      "payable": true
    },
    {
      "inputs": [
        {
          "internalType": "bytes32",
          "name": "courseHash",
          "type": "bytes32"
        }
      ],
      "name": "activateCourse",
      "outputs": [],
      "stateMutability": "nonpayable",
      "type": "function"
    },
    {
      "inputs": [
        {
          "internalType": "bytes32",
          "name": "courseHash",
          "type": "bytes32"
        }
      ],
      "name": "deactivateCourse",
      "outputs": [],
      "stateMutability": "nonpayable",
      "type": "function"
    },
    {
      "inputs": [
        {
          "internalType": "address",
          "name": "newOwner",
          "type": "address"
        }
      ],
      "name": "transferOwnership",
      "outputs": [],
      "stateMutability": "nonpayable",
      "type": "function"
    },
    {
      "inputs": [],
      "name": "getCourseCount",
      "outputs": [
        {
          "internalType": "uint256",
          "name": "",
          "type": "uint256"
        }
      ],
      "stateMutability": "view",
      "type": "function",
      "constant": true
    },
    {
      "inputs": [
        {
          "internalType": "uint256",
          "name": "index",
          "type": "uint256"
        }
      ],
      "name": "getCourseHashAtIndex",
      "outputs": [
        {
          "internalType": "bytes32",
          "name": "",
          "type": "bytes32"
        }
      ],
      "stateMutability": "view",
      "type": "function",
      "constant": true
    },
    {
      "inputs": [
        {
          "internalType": "bytes32",
          "name": "courseHash",
          "type": "bytes32"
        }
      ],
      "name": "getCourseByHash",
      "outputs": [
        {
          "components": [
            {
              "internalType": "uint256",
              "name": "id",
              "type": "uint256"
            },
            {
              "internalType": "uint256",
              "name": "price",
              "type": "uint256"
            },
            {
              "internalType": "bytes32",
              "name": "proof",
              "type": "bytes32"
            },
            {
              "internalType": "address",
              "name": "owner",
              "type": "address"
            },
            {
              "internalType": "enum CourseMarketplace.State",
              "name": "state",
              "type": "uint8"
            }
          ],
          "internalType": "struct CourseMarketplace.Course",
          "name": "",
          "type": "tuple"
        }
      ],
      "stateMutability": "view",
      "type": "function",
      "constant": true
    },
    {
      "inputs": [],
      "name": "getContractOwner",
      "outputs": [
        {
          "internalType": "address",
          "name": "",
          "type": "address"
        }
      ],
      "stateMutability": "view",
      "type": "function",
      "constant": true
    },
    {
      "inputs": [
        {
          "internalType": "bytes32",
          "name": "courseHash",
          "type": "bytes32"
        }
      ],
      "name": "isCourseCreated",
      "outputs": [
        {
          "internalType": "bool",
          "name": "",
          "type": "bool"
        }
      ],
      "stateMutability": "view",
      "type": "function",
      "constant": true
    }
  ],
  "bytecode": "0x608060405234801561001057600080fd5b506100203361002560201b60201c565b610069565b80600360006101000a81548173ffffffffffffffffffffffffffffffffffffffff021916908373ffffffffffffffffffffffffffffffffffffffff16021790555050565b6111e9806100786000396000f3fe6080604052600436106100865760003560e01c8063935d7e6d11610059578063935d7e6d1461015957806396cfda0614610182578063d76821cb146101ad578063f2fde38b146101c9578063f4b9da92146101f257610086565b8063392625721461008b578063442890d5146100b457806362e4e6ac146100df5780636d11290b1461011c575b600080fd5b34801561009757600080fd5b506100b260048036038101906100ad9190610ce8565b61022f565b005b3480156100c057600080fd5b506100c9610402565b6040516100d69190610ecf565b60405180910390f35b3480156100eb57600080fd5b5061010660048036038101906101019190610ce8565b61042c565b6040516101139190610f40565b60405180910390f35b34801561012857600080fd5b50610143600480360381019061013e9190610d11565b610553565b6040516101509190610f05565b60405180910390f35b34801561016557600080fd5b50610180600480360381019061017b9190610ce8565b610570565b005b34801561018e57600080fd5b50610197610822565b6040516101a49190610f5b565b60405180910390f35b6101c760048036038101906101c29190610cac565b61082c565b005b3480156101d557600080fd5b506101f060048036038101906101eb9190610c83565b610a18565b005b3480156101fe57600080fd5b5061021960048036038101906102149190610ce8565b610a90565b6040516102269190610eea565b60405180910390f35b610237610402565b73ffffffffffffffffffffffffffffffffffffffff163373ffffffffffffffffffffffffffffffffffffffff161461029b576040517f5fc483c500000000000000000000000000000000000000000000000000000000815260040160405180910390fd5b6102a481610a90565b6102da576040517f4db0c48300000000000000000000000000000000000000000000000000000000815260040160405180910390fd5b600080600083815260200190815260200160002090506000600281111561032a577f4e487b7100000000000000000000000000000000000000000000000000000000600052602160045260246000fd5b8160030160149054906101000a900460ff166002811115610374577f4e487b7100000000000000000000000000000000000000000000000000000000600052602160045260246000fd5b146103ab576040517fbaf3f0f700000000000000000000000000000000000000000000000000000000815260040160405180910390fd5b60018160030160146101000a81548160ff021916908360028111156103f9577f4e487b7100000000000000000000000000000000000000000000000000000000600052602160045260246000fd5b02179055505050565b6000600360009054906101000a900473ffffffffffffffffffffffffffffffffffffffff16905090565b610434610baf565b6000808381526020019081526020016000206040518060a00160405290816000820154815260200160018201548152602001600282015481526020016003820160009054906101000a900473ffffffffffffffffffffffffffffffffffffffff1673ffffffffffffffffffffffffffffffffffffffff1673ffffffffffffffffffffffffffffffffffffffff1681526020016003820160149054906101000a900460ff166002811115610510577f4e487b7100000000000000000000000000000000000000000000000000000000600052602160045260246000fd5b6002811115610548577f4e487b7100000000000000000000000000000000000000000000000000000000600052602160045260246000fd5b815250509050919050565b600060016000838152602001908152602001600020549050919050565b610578610402565b73ffffffffffffffffffffffffffffffffffffffff163373ffffffffffffffffffffffffffffffffffffffff16146105dc576040517f5fc483c500000000000000000000000000000000000000000000000000000000815260040160405180910390fd5b6105e581610a90565b61061b576040517f4db0c48300000000000000000000000000000000000000000000000000000000815260040160405180910390fd5b600080600083815260200190815260200160002090506000600281111561066b577f4e487b7100000000000000000000000000000000000000000000000000000000600052602160045260246000fd5b8160030160149054906101000a900460ff1660028111156106b5577f4e487b7100000000000000000000000000000000000000000000000000000000600052602160045260246000fd5b146106ec576040517fbaf3f0f700000000000000000000000000000000000000000000000000000000815260040160405180910390fd5b60008160030160009054906101000a900473ffffffffffffffffffffffffffffffffffffffff1673ffffffffffffffffffffffffffffffffffffffff16826001015460405161073a90610eba565b60006040518083038185875af1925050503d8060008114610777576040519150601f19603f3d011682016040523d82523d6000602084013e61077c565b606091505b50509050806107c0576040517f08c379a00000000000000000000000000000000000000000000000000000000081526004016107b790610f20565b60405180910390fd5b60028260030160146101000a81548160ff0219169083600281111561080e577f4e487b7100000000000000000000000000000000000000000000000000000000600052602160045260246000fd5b021790555060008260010181905550505050565b6000600254905090565b60008233604051602001610841929190610e8e565b60405160208183030381529060405280519060200120905061086281610afe565b15610899576040517f2d5fef9200000000000000000000000000000000000000000000000000000000815260040160405180910390fd5b6000600260008154809291906108ae90611035565b9190505590508160016000838152602001908152602001600020819055506040518060a001604052808281526020013481526020018481526020013373ffffffffffffffffffffffffffffffffffffffff1681526020016000600281111561093f577f4e487b7100000000000000000000000000000000000000000000000000000000600052602160045260246000fd5b81525060008084815260200190815260200160002060008201518160000155602082015181600101556040820151816002015560608201518160030160006101000a81548173ffffffffffffffffffffffffffffffffffffffff021916908373ffffffffffffffffffffffffffffffffffffffff16021790555060808201518160030160146101000a81548160ff02191690836002811115610a0a577f4e487b7100000000000000000000000000000000000000000000000000000000600052602160045260246000fd5b021790555090505050505050565b610a20610402565b73ffffffffffffffffffffffffffffffffffffffff163373ffffffffffffffffffffffffffffffffffffffff1614610a84576040517f5fc483c500000000000000000000000000000000000000000000000000000000815260040160405180910390fd5b610a8d81610b6b565b50565b60008073ffffffffffffffffffffffffffffffffffffffff1660008084815260200190815260200160002060030160009054906101000a900473ffffffffffffffffffffffffffffffffffffffff1673ffffffffffffffffffffffffffffffffffffffff1614159050919050565b60003373ffffffffffffffffffffffffffffffffffffffff1660008084815260200190815260200160002060030160009054906101000a900473ffffffffffffffffffffffffffffffffffffffff1673ffffffffffffffffffffffffffffffffffffffff16149050919050565b80600360006101000a81548173ffffffffffffffffffffffffffffffffffffffff021916908373ffffffffffffffffffffffffffffffffffffffff16021790555050565b6040518060a00160405280600081526020016000815260200160008019168152602001600073ffffffffffffffffffffffffffffffffffffffff16815260200160006002811115610c29577f4e487b7100000000000000000000000000000000000000000000000000000000600052602160045260246000fd5b81525090565b600081359050610c3e81611157565b92915050565b600081359050610c538161116e565b92915050565b600081359050610c6881611185565b92915050565b600081359050610c7d8161119c565b92915050565b600060208284031215610c9557600080fd5b6000610ca384828501610c2f565b91505092915050565b60008060408385031215610cbf57600080fd5b6000610ccd85828601610c44565b9250506020610cde85828601610c59565b9150509250929050565b600060208284031215610cfa57600080fd5b6000610d0884828501610c59565b91505092915050565b600060208284031215610d2357600080fd5b6000610d3184828501610c6e565b91505092915050565b610d4381610f92565b82525050565b610d5281610f92565b82525050565b610d69610d6482610f92565b61107e565b82525050565b610d7881610fa4565b82525050565b610d8f610d8a82610fb0565b611090565b82525050565b610d9e81610fdc565b82525050565b610dad81610fdc565b82525050565b610dbc81611023565b82525050565b6000610dcf601d83610f81565b9150610dda82611117565b602082019050919050565b6000610df2600083610f76565b9150610dfd82611140565b600082019050919050565b60a082016000820151610e1e6000850182610e70565b506020820151610e316020850182610e70565b506040820151610e446040850182610d95565b506060820151610e576060850182610d3a565b506080820151610e6a6080850182610db3565b50505050565b610e7981611019565b82525050565b610e8881611019565b82525050565b6000610e9a8285610d7e565b601082019150610eaa8284610d58565b6014820191508190509392505050565b6000610ec582610de5565b9150819050919050565b6000602082019050610ee46000830184610d49565b92915050565b6000602082019050610eff6000830184610d6f565b92915050565b6000602082019050610f1a6000830184610da4565b92915050565b60006020820190508181036000830152610f3981610dc2565b9050919050565b600060a082019050610f556000830184610e08565b92915050565b6000602082019050610f706000830184610e7f565b92915050565b600081905092915050565b600082825260208201905092915050565b6000610f9d82610ff9565b9050919050565b60008115159050919050565b60007fffffffffffffffffffffffffffffffff0000000000000000000000000000000082169050919050565b6000819050919050565b6000819050610ff482611143565b919050565b600073ffffffffffffffffffffffffffffffffffffffff82169050919050565b6000819050919050565b600061102e82610fe6565b9050919050565b600061104082611019565b91507fffffffffffffffffffffffffffffffffffffffffffffffffffffffffffffffff821415611073576110726110ac565b5b600182019050919050565b60006110898261109a565b9050919050565b6000819050919050565b60006110a58261110a565b9050919050565b7f4e487b7100000000000000000000000000000000000000000000000000000000600052601160045260246000fd5b7f4e487b7100000000000000000000000000000000000000000000000000000000600052602160045260246000fd5b60008160601b9050919050565b7f5472616e73666572696e67206d6f6e6579206261636b206661696c652e000000600082015250565b50565b60038110611154576111536110db565b5b50565b61116081610f92565b811461116b57600080fd5b50565b61117781610fb0565b811461118257600080fd5b50565b61118e81610fdc565b811461119957600080fd5b50565b6111a581611019565b81146111b057600080fd5b5056fea2646970667358221220d33d6f50dc1339d0462f2acd4d5c73d867bbe7463713a45cf303cc092962aba764736f6c63430008040033",
  "immutableReferences": {},
  "source": "// SPDX-License-Identifier: MIT\npragma solidity >=0.4.22 <0.9.0;\n\ncontract CourseMarketplace {\n  enum State {\n    Purchased,\n    Activated,\n    Deactivated\n  }\n\n  struct Course {\n    uint id;\n    uint price;\n    bytes32 proof;\n    address owner;\n    State state;\n  }\n\n  // mapping of courseHash to Course data\n  mapping(bytes32 => Course) private ownedCourses;\n\n  // mapping of courseId to courseHash\n  mapping(uint => bytes32) private ownedCourseHash;\n\n  // number of all courses + id of the course\n  uint private totalOwnedCourses;\n\n  address payable private owner;\n\n  constructor() {\n    setContractOwner(msg.sender);\n  }\n\n  // with 3 slashes we can specify an error message\n  /// Course has already an Owner!\n  error CourseHasHowner();\n\n  /// Only owner has access\n  error OnlyOwner();\n\n  /// Course has invalid state\n  error InvalidState();\n\n  /// Course is not created\n  error CourseIsNotCreated();\n\n  modifier onlyOwner() {\n    if (msg.sender != getContractOwner()) {\n      revert OnlyOwner();\n    }\n    _;\n  }\n\n  function purchaseCourse(bytes16 courseId, bytes32 proof) external payable {\n    // courseId 0x00000000000000000000000000003130\n    // proof 0x0000000000000000000000000000313000000000000000000000000000003130\n    bytes32 courseHash = keccak256(abi.encodePacked(courseId, msg.sender));\n\n    if (hasCourseOwnership(courseHash)) {\n      revert CourseHasHowner();\n    }\n\n    uint id = totalOwnedCourses++;\n\n    ownedCourseHash[id] = courseHash;\n    ownedCourses[courseHash] = Course({\n      id: id,\n      price: msg.value,\n      proof: proof,\n      owner: msg.sender,\n      state: State.Purchased\n    });\n  }\n\n  function activateCourse(bytes32 courseHash) external onlyOwner {\n    if (!isCourseCreated(courseHash)) {\n      revert CourseIsNotCreated();\n    }\n\n    Course storage course = ownedCourses[courseHash];\n\n    if (course.state != State.Purchased) {\n      revert InvalidState();\n    }\n\n    course.state = State.Activated;\n  }\n\n  function deactivateCourse(bytes32 courseHash) external onlyOwner {\n    if (!isCourseCreated(courseHash)) {\n      revert CourseIsNotCreated();\n    }\n\n    Course storage course = ownedCourses[courseHash];\n\n    if (course.state != State.Purchased) {\n      revert InvalidState();\n    }\n\n    // Sending back payed amount to the buyer before deactivation\n    (bool success, ) = course.owner.call{value: course.price}(\"\");\n    require(success, \"Transfering money back faile.\");\n\n    course.state = State.Deactivated;\n    course.price = 0;\n  }\n\n  function transferOwnership(address newOwner) external onlyOwner {\n    setContractOwner(newOwner);\n  }\n\n  function getCourseCount() external view returns (uint) {\n    return totalOwnedCourses;\n  }\n\n  function getCourseHashAtIndex(uint index) external view returns(bytes32) {\n    return ownedCourseHash[index];\n  }\n\n  function getCourseByHash(bytes32 courseHash) external view returns(Course memory) {\n    return ownedCourses[courseHash];\n  }\n\n  function getContractOwner() public view returns(address) {\n    return owner;\n  }\n\n  function setContractOwner(address newOwner) private {\n    owner = payable(newOwner);\n  }\n\n  function isCourseCreated(bytes32 courseHash) public view returns(bool) {\n    return ownedCourses[courseHash].owner != 0x0000000000000000000000000000000000000000;\n  }\n\n  function hasCourseOwnership(bytes32 courseHash) private view returns(bool) {\n    return ownedCourses[courseHash].owner == msg.sender;\n  }\n}",
  "sourcePath": "/Users/admin/Desktop/self-development/udemy/web3-solidity-dapps/blockchain/marketplace-eth/contracts/CourseMarketplace.sol",
  "compiler": {
    "name": "solc",
    "version": "0.8.4+commit.c7e474f2.Emscripten.clang"
  },
  "schemaVersion": "3.4.16",
  "updatedAt": "2024-12-16T02:30:33.197Z",
  "networkType": "ethereum",
  "devdoc": {
    "kind": "dev",
    "methods": {},
    "version": 1
  },
  "userdoc": {
    "errors": {
      "CourseHasHowner()": [
        {
          "notice": "Course has already an Owner!"
        }
      ],
      "CourseIsNotCreated()": [
        {
          "notice": "Course is not created"
        }
      ],
      "InvalidState()": [
        {
          "notice": "Course has invalid state"
        }
      ],
      "OnlyOwner()": [
        {
          "notice": "Only owner has access"
        }
      ]
    },
    "kind": "user",
    "methods": {},
    "version": 1
  }
}